{
  "_format": "hh-sol-artifact-1",
  "contractName": "Create",
  "sourceName": "contracts/VotingContract.sol",
  "abi": [
    {
      "inputs": [],
      "stateMutability": "nonpayable",
      "type": "constructor"
    },
    {
      "anonymous": false,
      "inputs": [
        {
          "indexed": true,
          "internalType": "uint256",
          "name": "candidateId",
          "type": "uint256"
        },
        {
          "indexed": false,
          "internalType": "string",
          "name": "age",
          "type": "string"
        },
        {
          "indexed": false,
          "internalType": "string",
          "name": "name",
          "type": "string"
        },
        {
          "indexed": false,
          "internalType": "string",
          "name": "image",
          "type": "string"
        },
        {
          "indexed": false,
          "internalType": "uint256",
          "name": "voteCount",
          "type": "uint256"
        },
        {
          "indexed": false,
          "internalType": "address",
          "name": "_address",
          "type": "address"
        },
        {
          "indexed": false,
          "internalType": "string",
          "name": "ipfs",
          "type": "string"
        }
      ],
      "name": "CandidateCreate",
      "type": "event"
    },
    {
      "anonymous": false,
      "inputs": [
        {
          "indexed": true,
          "internalType": "uint256",
          "name": "voter_voterId",
          "type": "uint256"
        },
        {
          "indexed": false,
          "internalType": "string",
          "name": "voter_name",
          "type": "string"
        },
        {
          "indexed": false,
          "internalType": "string",
          "name": "voter_image",
          "type": "string"
        },
        {
          "indexed": false,
          "internalType": "address",
          "name": "voter_address",
          "type": "address"
        },
        {
          "indexed": false,
          "internalType": "uint256",
          "name": "voter_allowed",
          "type": "uint256"
        },
        {
          "indexed": false,
          "internalType": "bool",
          "name": "voter_voted",
          "type": "bool"
        },
        {
          "indexed": false,
          "internalType": "uint256",
          "name": "voter_vote",
          "type": "uint256"
        },
        {
          "indexed": false,
          "internalType": "string",
          "name": "voter_ipfs",
          "type": "string"
        }
      ],
      "name": "VoterCreated",
      "type": "event"
    },
    {
      "inputs": [],
      "name": "_voterId",
      "outputs": [
        {
          "internalType": "uint256",
          "name": "_value",
          "type": "uint256"
        }
      ],
      "stateMutability": "view",
      "type": "function"
    },
    {
      "inputs": [
        {
          "internalType": "uint256",
          "name": "",
          "type": "uint256"
        }
      ],
      "name": "candidateAddress",
      "outputs": [
        {
          "internalType": "address",
          "name": "",
          "type": "address"
        }
      ],
      "stateMutability": "view",
      "type": "function"
    },
    {
      "inputs": [],
      "name": "candidateId",
      "outputs": [
        {
          "internalType": "uint256",
          "name": "_value",
          "type": "uint256"
        }
      ],
      "stateMutability": "view",
      "type": "function"
    },
    {
      "inputs": [
        {
          "internalType": "address",
          "name": "",
          "type": "address"
        }
      ],
      "name": "candidates",
      "outputs": [
        {
          "internalType": "uint256",
          "name": "candidateId",
          "type": "uint256"
        },
        {
          "internalType": "string",
          "name": "age",
          "type": "string"
        },
        {
          "internalType": "string",
          "name": "name",
          "type": "string"
        },
        {
          "internalType": "string",
          "name": "image",
          "type": "string"
        },
        {
          "internalType": "uint256",
          "name": "voteCount",
          "type": "uint256"
        },
        {
          "internalType": "address",
          "name": "_address",
          "type": "address"
        },
        {
          "internalType": "string",
          "name": "ipfs",
          "type": "string"
        }
      ],
      "stateMutability": "view",
      "type": "function"
    },
    {
      "inputs": [],
      "name": "getCandidate",
      "outputs": [
        {
          "internalType": "address[]",
          "name": "",
          "type": "address[]"
        }
      ],
      "stateMutability": "view",
      "type": "function"
    },
    {
      "inputs": [],
      "name": "getCandidateLength",
      "outputs": [
        {
          "internalType": "uint256",
          "name": "",
          "type": "uint256"
        }
      ],
      "stateMutability": "view",
      "type": "function"
    },
    {
      "inputs": [
        {
          "internalType": "address",
          "name": "_address",
          "type": "address"
        }
      ],
      "name": "getCandidatedata",
      "outputs": [
        {
          "internalType": "string",
          "name": "",
          "type": "string"
        },
        {
          "internalType": "string",
          "name": "",
          "type": "string"
        },
        {
          "internalType": "uint256",
          "name": "",
          "type": "uint256"
        },
        {
          "internalType": "string",
          "name": "",
          "type": "string"
        },
        {
          "internalType": "uint256",
          "name": "",
          "type": "uint256"
        },
        {
          "internalType": "string",
          "name": "",
          "type": "string"
        },
        {
          "internalType": "address",
          "name": "",
          "type": "address"
        }
      ],
      "stateMutability": "view",
      "type": "function"
    },
    {
      "inputs": [],
      "name": "getVotedVoterList",
      "outputs": [
        {
          "internalType": "address[]",
          "name": "",
          "type": "address[]"
        }
      ],
      "stateMutability": "view",
      "type": "function"
    },
    {
      "inputs": [],
      "name": "getVoterLength",
      "outputs": [
        {
          "internalType": "uint256",
          "name": "",
          "type": "uint256"
        }
      ],
      "stateMutability": "view",
      "type": "function"
    },
    {
      "inputs": [],
      "name": "getVoterList",
      "outputs": [
        {
          "internalType": "address[]",
          "name": "",
          "type": "address[]"
        }
      ],
      "stateMutability": "view",
      "type": "function"
    },
    {
      "inputs": [
        {
          "internalType": "address",
          "name": "_address",
          "type": "address"
        }
      ],
      "name": "getVoterdata",
      "outputs": [
        {
          "internalType": "uint256",
          "name": "",
          "type": "uint256"
        },
        {
          "internalType": "string",
          "name": "",
          "type": "string"
        },
        {
          "internalType": "string",
          "name": "",
          "type": "string"
        },
        {
          "internalType": "address",
          "name": "",
          "type": "address"
        },
        {
          "internalType": "string",
          "name": "",
          "type": "string"
        },
        {
          "internalType": "uint256",
          "name": "",
          "type": "uint256"
        },
        {
          "internalType": "bool",
          "name": "",
          "type": "bool"
        }
      ],
      "stateMutability": "view",
      "type": "function"
    },
    {
      "inputs": [
        {
          "internalType": "address",
          "name": "_address",
          "type": "address"
        },
        {
          "internalType": "string",
          "name": "_age",
          "type": "string"
        },
        {
          "internalType": "string",
          "name": "_name",
          "type": "string"
        },
        {
          "internalType": "string",
          "name": "_image",
          "type": "string"
        },
        {
          "internalType": "string",
          "name": "_ipfs",
          "type": "string"
        }
      ],
      "name": "setCandidate",
      "outputs": [],
      "stateMutability": "nonpayable",
      "type": "function"
    },
    {
      "inputs": [
        {
          "internalType": "address",
          "name": "_candidateAddress",
          "type": "address"
        },
        {
          "internalType": "uint256",
          "name": "_candidateVoteId",
          "type": "uint256"
        }
      ],
      "name": "vote",
      "outputs": [],
      "stateMutability": "nonpayable",
      "type": "function"
    },
    {
      "inputs": [
        {
          "internalType": "uint256",
          "name": "",
          "type": "uint256"
        }
      ],
      "name": "votedVoters",
      "outputs": [
        {
          "internalType": "address",
          "name": "",
          "type": "address"
        }
      ],
      "stateMutability": "view",
      "type": "function"
    },
    {
      "inputs": [
        {
          "internalType": "address",
          "name": "_address",
          "type": "address"
        },
        {
          "internalType": "string",
          "name": "_name",
          "type": "string"
        },
        {
          "internalType": "string",
          "name": "_image",
          "type": "string"
        },
        {
          "internalType": "string",
          "name": "_ipfs",
          "type": "string"
        }
      ],
      "name": "voterRight",
      "outputs": [],
      "stateMutability": "nonpayable",
      "type": "function"
    },
    {
      "inputs": [
        {
          "internalType": "address",
          "name": "",
          "type": "address"
        }
      ],
      "name": "voters",
      "outputs": [
        {
          "internalType": "uint256",
          "name": "voter_voterId",
          "type": "uint256"
        },
        {
          "internalType": "string",
          "name": "voter_name",
          "type": "string"
        },
        {
          "internalType": "string",
          "name": "voter_image",
          "type": "string"
        },
        {
          "internalType": "address",
          "name": "voter_address",
          "type": "address"
        },
        {
          "internalType": "uint256",
          "name": "voter_allowed",
          "type": "uint256"
        },
        {
          "internalType": "bool",
          "name": "voter_voted",
          "type": "bool"
        },
        {
          "internalType": "uint256",
          "name": "voter_vote",
          "type": "uint256"
        },
        {
          "internalType": "string",
          "name": "voter_ipfs",
          "type": "string"
        }
      ],
      "stateMutability": "view",
      "type": "function"
    },
    {
      "inputs": [
        {
          "internalType": "uint256",
          "name": "",
          "type": "uint256"
        }
      ],
      "name": "votersAddress",
      "outputs": [
        {
          "internalType": "address",
          "name": "",
          "type": "address"
        }
      ],
      "stateMutability": "view",
      "type": "function"
    },
    {
      "inputs": [],
      "name": "votingOrganizer",
      "outputs": [
        {
          "internalType": "address",
          "name": "",
          "type": "address"
        }
      ],
      "stateMutability": "view",
      "type": "function"
    }
  ],
  "bytecode": "0x608060405234801561001057600080fd5b5033600260006101000a81548173ffffffffffffffffffffffffffffffffffffffff021916908373ffffffffffffffffffffffffffffffffffffffff16021790555061261b806100616000396000f3fe608060405234801561001057600080fd5b50600436106101165760003560e01c80638e945685116100a2578063b63c82ca11610071578063b63c82ca14610304578063b9be31521461033a578063c5036fd414610358578063c91ec7121461038e578063f7522a83146103aa57610116565b80638e945685146102735780639f91e6bf14610291578063a3ec138d146102af578063b28d92ae146102e657610116565b80635cc48aa7116100e95780635cc48aa7146101b55780635f74bbde146101d357806370218b85146101ef5780637831ffb31461020d5780638ab66a901461023d57610116565b80630361419e1461011b57806305ad45a4146101375780633a88251a1461015557806343242daa14610185575b600080fd5b61013560048036038101906101309190611b53565b6103c8565b005b61013f610655565b60405161014c9190612194565b60405180910390f35b61016f600480360381019061016a9190611d11565b610662565b60405161017c9190611f4b565b60405180910390f35b61019f600480360381019061019a9190611d11565b6106a1565b6040516101ac9190611f4b565b60405180910390f35b6101bd6106e0565b6040516101ca9190611f4b565b60405180910390f35b6101ed60048036038101906101e89190611cd5565b610706565b005b6101f76108ce565b6040516102049190611f66565b60405180910390f35b61022760048036038101906102229190611d11565b61095c565b6040516102349190611f4b565b60405180910390f35b61025760048036038101906102529190611b2a565b61099b565b60405161026a97969594939291906122c6565b60405180910390f35b61027b610c1d565b6040516102889190611f66565b60405180910390f35b610299610cab565b6040516102a69190612194565b60405180910390f35b6102c960048036038101906102c49190611b2a565b610cb7565b6040516102dd989796959493929190612233565b60405180910390f35b6102ee610ec4565b6040516102fb9190611f66565b60405180910390f35b61031e60048036038101906103199190611b2a565b610f52565b6040516103319796959493929190612089565b60405180910390f35b610342611399565b60405161034f9190612194565b60405180910390f35b610372600480360381019061036d9190611b2a565b6113a5565b60405161038597969594939291906121af565b60405180910390f35b6103a860048036038101906103a39190611bfe565b61176d565b005b6103b26119c4565b6040516103bf9190612194565b60405180910390f35b3373ffffffffffffffffffffffffffffffffffffffff16600260009054906101000a900473ffffffffffffffffffffffffffffffffffffffff1673ffffffffffffffffffffffffffffffffffffffff1614610458576040517f08c379a000000000000000000000000000000000000000000000000000000000815260040161044f90612154565b60405180910390fd5b61046260006119d1565b600061046e60006119e7565b90506000600760008773ffffffffffffffffffffffffffffffffffffffff1673ffffffffffffffffffffffffffffffffffffffff168152602001908152602001600020905060008160040154146104c457600080fd5b60018160040181905550848160010190805190602001906104e69291906119f5565b50838160020190805190602001906104ff9291906119f5565b50858160030160006101000a81548173ffffffffffffffffffffffffffffffffffffffff021916908373ffffffffffffffffffffffffffffffffffffffff1602179055508181600001819055506103e8816006018190555060008160050160006101000a81548160ff0219169083151502179055508281600701908051906020019061058c9291906119f5565b506006869080600181540180825580915050600190039060005260206000200160009091909190916101000a81548173ffffffffffffffffffffffffffffffffffffffff021916908373ffffffffffffffffffffffffffffffffffffffff160217905550817ff5f39971dd62d9929e3a9feaa6bb77fe7c7da0001babff8a65a7e51ad0201c1986868985600401548660050160009054906101000a900460ff1687600601548a6040516106459796959493929190611f88565b60405180910390a2505050505050565b6000600680549050905090565b6003818154811061067257600080fd5b906000526020600020016000915054906101000a900473ffffffffffffffffffffffffffffffffffffffff1681565b600681815481106106b157600080fd5b906000526020600020016000915054906101000a900473ffffffffffffffffffffffffffffffffffffffff1681565b600260009054906101000a900473ffffffffffffffffffffffffffffffffffffffff1681565b6000600760003373ffffffffffffffffffffffffffffffffffffffff1673ffffffffffffffffffffffffffffffffffffffff16815260200190815260200160002090508060050160009054906101000a900460ff161561079b576040517f08c379a000000000000000000000000000000000000000000000000000000000815260040161079290612134565b60405180910390fd5b6000816004015414156107e3576040517f08c379a00000000000000000000000000000000000000000000000000000000081526004016107da90612114565b60405180910390fd5b60018160050160006101000a81548160ff0219169083151502179055508181600601819055506005339080600181540180825580915050600190039060005260206000200160009091909190916101000a81548173ffffffffffffffffffffffffffffffffffffffff021916908373ffffffffffffffffffffffffffffffffffffffff1602179055508060040154600460008573ffffffffffffffffffffffffffffffffffffffff1673ffffffffffffffffffffffffffffffffffffffff16815260200190815260200160002060040160008282546108c29190612407565b92505081905550505050565b6060600380548060200260200160405190810160405280929190818152602001828054801561095257602002820191906000526020600020905b8160009054906101000a900473ffffffffffffffffffffffffffffffffffffffff1673ffffffffffffffffffffffffffffffffffffffff1681526020019060010190808311610908575b5050505050905090565b6005818154811061096c57600080fd5b906000526020600020016000915054906101000a900473ffffffffffffffffffffffffffffffffffffffff1681565b60046020528060005260406000206000915090508060000154908060010180546109c4906124e7565b80601f01602080910402602001604051908101604052809291908181526020018280546109f0906124e7565b8015610a3d5780601f10610a1257610100808354040283529160200191610a3d565b820191906000526020600020905b815481529060010190602001808311610a2057829003601f168201915b505050505090806002018054610a52906124e7565b80601f0160208091040260200160405190810160405280929190818152602001828054610a7e906124e7565b8015610acb5780601f10610aa057610100808354040283529160200191610acb565b820191906000526020600020905b815481529060010190602001808311610aae57829003601f168201915b505050505090806003018054610ae0906124e7565b80601f0160208091040260200160405190810160405280929190818152602001828054610b0c906124e7565b8015610b595780601f10610b2e57610100808354040283529160200191610b59565b820191906000526020600020905b815481529060010190602001808311610b3c57829003601f168201915b5050505050908060040154908060050160009054906101000a900473ffffffffffffffffffffffffffffffffffffffff1690806006018054610b9a906124e7565b80601f0160208091040260200160405190810160405280929190818152602001828054610bc6906124e7565b8015610c135780601f10610be857610100808354040283529160200191610c13565b820191906000526020600020905b815481529060010190602001808311610bf657829003601f168201915b5050505050905087565b60606005805480602002602001604051908101604052809291908181526020018280548015610ca157602002820191906000526020600020905b8160009054906101000a900473ffffffffffffffffffffffffffffffffffffffff1673ffffffffffffffffffffffffffffffffffffffff1681526020019060010190808311610c57575b5050505050905090565b60018060000154905081565b6007602052806000526040600020600091509050806000015490806001018054610ce0906124e7565b80601f0160208091040260200160405190810160405280929190818152602001828054610d0c906124e7565b8015610d595780601f10610d2e57610100808354040283529160200191610d59565b820191906000526020600020905b815481529060010190602001808311610d3c57829003601f168201915b505050505090806002018054610d6e906124e7565b80601f0160208091040260200160405190810160405280929190818152602001828054610d9a906124e7565b8015610de75780601f10610dbc57610100808354040283529160200191610de7565b820191906000526020600020905b815481529060010190602001808311610dca57829003601f168201915b5050505050908060030160009054906101000a900473ffffffffffffffffffffffffffffffffffffffff16908060040154908060050160009054906101000a900460ff1690806006015490806007018054610e41906124e7565b80601f0160208091040260200160405190810160405280929190818152602001828054610e6d906124e7565b8015610eba5780601f10610e8f57610100808354040283529160200191610eba565b820191906000526020600020905b815481529060010190602001808311610e9d57829003601f168201915b5050505050905088565b60606006805480602002602001604051908101604052809291908181526020018280548015610f4857602002820191906000526020600020905b8160009054906101000a900473ffffffffffffffffffffffffffffffffffffffff1673ffffffffffffffffffffffffffffffffffffffff1681526020019060010190808311610efe575b5050505050905090565b60608060006060600060606000600460008973ffffffffffffffffffffffffffffffffffffffff1673ffffffffffffffffffffffffffffffffffffffff168152602001908152602001600020600101600460008a73ffffffffffffffffffffffffffffffffffffffff1673ffffffffffffffffffffffffffffffffffffffff168152602001908152602001600020600201600460008b73ffffffffffffffffffffffffffffffffffffffff1673ffffffffffffffffffffffffffffffffffffffff16815260200190815260200160002060000154600460008c73ffffffffffffffffffffffffffffffffffffffff1673ffffffffffffffffffffffffffffffffffffffff168152602001908152602001600020600301600460008d73ffffffffffffffffffffffffffffffffffffffff1673ffffffffffffffffffffffffffffffffffffffff16815260200190815260200160002060040154600460008e73ffffffffffffffffffffffffffffffffffffffff1673ffffffffffffffffffffffffffffffffffffffff168152602001908152602001600020600601600460008f73ffffffffffffffffffffffffffffffffffffffff1673ffffffffffffffffffffffffffffffffffffffff16815260200190815260200160002060050160009054906101000a900473ffffffffffffffffffffffffffffffffffffffff1686805461115c906124e7565b80601f0160208091040260200160405190810160405280929190818152602001828054611188906124e7565b80156111d55780601f106111aa576101008083540402835291602001916111d5565b820191906000526020600020905b8154815290600101906020018083116111b857829003601f168201915b505050505096508580546111e8906124e7565b80601f0160208091040260200160405190810160405280929190818152602001828054611214906124e7565b80156112615780601f1061123657610100808354040283529160200191611261565b820191906000526020600020905b81548152906001019060200180831161124457829003601f168201915b50505050509550838054611274906124e7565b80601f01602080910402602001604051908101604052809291908181526020018280546112a0906124e7565b80156112ed5780601f106112c2576101008083540402835291602001916112ed565b820191906000526020600020905b8154815290600101906020018083116112d057829003601f168201915b50505050509350818054611300906124e7565b80601f016020809104026020016040519081016040528092919081815260200182805461132c906124e7565b80156113795780601f1061134e57610100808354040283529160200191611379565b820191906000526020600020905b81548152906001019060200180831161135c57829003601f168201915b505050505091509650965096509650965096509650919395979092949650565b60008060000154905081565b600060608060006060600080600760008973ffffffffffffffffffffffffffffffffffffffff1673ffffffffffffffffffffffffffffffffffffffff16815260200190815260200160002060000154600760008a73ffffffffffffffffffffffffffffffffffffffff1673ffffffffffffffffffffffffffffffffffffffff168152602001908152602001600020600101600760008b73ffffffffffffffffffffffffffffffffffffffff1673ffffffffffffffffffffffffffffffffffffffff168152602001908152602001600020600201600760008c73ffffffffffffffffffffffffffffffffffffffff1673ffffffffffffffffffffffffffffffffffffffff16815260200190815260200160002060030160009054906101000a900473ffffffffffffffffffffffffffffffffffffffff16600760008d73ffffffffffffffffffffffffffffffffffffffff1673ffffffffffffffffffffffffffffffffffffffff168152602001908152602001600020600701600760008e73ffffffffffffffffffffffffffffffffffffffff1673ffffffffffffffffffffffffffffffffffffffff16815260200190815260200160002060040154600760008f73ffffffffffffffffffffffffffffffffffffffff1673ffffffffffffffffffffffffffffffffffffffff16815260200190815260200160002060050160009054906101000a900460ff168580546115bc906124e7565b80601f01602080910402602001604051908101604052809291908181526020018280546115e8906124e7565b80156116355780601f1061160a57610100808354040283529160200191611635565b820191906000526020600020905b81548152906001019060200180831161161857829003601f168201915b50505050509550848054611648906124e7565b80601f0160208091040260200160405190810160405280929190818152602001828054611674906124e7565b80156116c15780601f10611696576101008083540402835291602001916116c1565b820191906000526020600020905b8154815290600101906020018083116116a457829003601f168201915b505050505094508280546116d4906124e7565b80601f0160208091040260200160405190810160405280929190818152602001828054611700906124e7565b801561174d5780601f106117225761010080835404028352916020019161174d565b820191906000526020600020905b81548152906001019060200180831161173057829003601f168201915b505050505092509650965096509650965096509650919395979092949650565b3373ffffffffffffffffffffffffffffffffffffffff16600260009054906101000a900473ffffffffffffffffffffffffffffffffffffffff1673ffffffffffffffffffffffffffffffffffffffff16146117fd576040517f08c379a00000000000000000000000000000000000000000000000000000000081526004016117f490612174565b60405180910390fd5b61180760016119d1565b600061181360016119e7565b90506000600460008873ffffffffffffffffffffffffffffffffffffffff1673ffffffffffffffffffffffffffffffffffffffff1681526020019081526020016000209050858160010190805190602001906118709291906119f5565b50848160020190805190602001906118899291906119f5565b50818160000181905550838160030190805190602001906118ab9291906119f5565b5060008160040181905550868160050160006101000a81548173ffffffffffffffffffffffffffffffffffffffff021916908373ffffffffffffffffffffffffffffffffffffffff160217905550828160060190805190602001906119119291906119f5565b506003879080600181540180825580915050600190039060005260206000200160009091909190916101000a81548173ffffffffffffffffffffffffffffffffffffffff021916908373ffffffffffffffffffffffffffffffffffffffff160217905550817fd297f12b256bb8485a6013fb5e302017018123e99a0ebb20756c09e1707b4b9087878785600401548c896040516119b39695949392919061200c565b60405180910390a250505050505050565b6000600380549050905090565b6001816000016000828254019250508190555050565b600081600001549050919050565b828054611a01906124e7565b90600052602060002090601f016020900481019282611a235760008555611a6a565b82601f10611a3c57805160ff1916838001178555611a6a565b82800160010185558215611a6a579182015b82811115611a69578251825591602001919060010190611a4e565b5b509050611a779190611a7b565b5090565b5b80821115611a94576000816000905550600101611a7c565b5090565b6000611aab611aa684612382565b612351565b905082815260208101848484011115611ac357600080fd5b611ace8482856124a5565b509392505050565b600081359050611ae5816125b7565b92915050565b600082601f830112611afc57600080fd5b8135611b0c848260208601611a98565b91505092915050565b600081359050611b24816125ce565b92915050565b600060208284031215611b3c57600080fd5b6000611b4a84828501611ad6565b91505092915050565b60008060008060808587031215611b6957600080fd5b6000611b7787828801611ad6565b945050602085013567ffffffffffffffff811115611b9457600080fd5b611ba087828801611aeb565b935050604085013567ffffffffffffffff811115611bbd57600080fd5b611bc987828801611aeb565b925050606085013567ffffffffffffffff811115611be657600080fd5b611bf287828801611aeb565b91505092959194509250565b600080600080600060a08688031215611c1657600080fd5b6000611c2488828901611ad6565b955050602086013567ffffffffffffffff811115611c4157600080fd5b611c4d88828901611aeb565b945050604086013567ffffffffffffffff811115611c6a57600080fd5b611c7688828901611aeb565b935050606086013567ffffffffffffffff811115611c9357600080fd5b611c9f88828901611aeb565b925050608086013567ffffffffffffffff811115611cbc57600080fd5b611cc888828901611aeb565b9150509295509295909350565b60008060408385031215611ce857600080fd5b6000611cf685828601611ad6565b9250506020611d0785828601611b15565b9150509250929050565b600060208284031215611d2357600080fd5b6000611d3184828501611b15565b91505092915050565b6000611d468383611d52565b60208301905092915050565b611d5b8161245d565b82525050565b611d6a8161245d565b82525050565b6000611d7b826123c2565b611d8581856123e5565b9350611d90836123b2565b8060005b83811015611dc1578151611da88882611d3a565b9750611db3836123d8565b925050600181019050611d94565b5085935050505092915050565b611dd78161246f565b82525050565b6000611de8826123cd565b611df281856123f6565b9350611e028185602086016124b4565b611e0b816125a6565b840191505092915050565b6000611e236019836123f6565b91507f596f752068617665206e6f20726967687420746f20766f7465000000000000006000830152602082019050919050565b6000611e636016836123f6565b91507f596f75206861766520616c726561647920566f746564000000000000000000006000830152602082019050919050565b6000611ea36026836123f6565b91507f4f6e6c7920766f74696e67206f7267616e697a65722063616e2063726561746560008301527f20766f74657200000000000000000000000000000000000000000000000000006020830152604082019050919050565b6000611f096020836123f6565b91507f4f6e6c79206f7267616e697a65722063616e206164642063616e6469646174656000830152602082019050919050565b611f458161249b565b82525050565b6000602082019050611f606000830184611d61565b92915050565b60006020820190508181036000830152611f808184611d70565b905092915050565b600060e0820190508181036000830152611fa2818a611ddd565b90508181036020830152611fb68189611ddd565b9050611fc56040830188611d61565b611fd26060830187611f3c565b611fdf6080830186611dce565b611fec60a0830185611f3c565b81810360c0830152611ffe8184611ddd565b905098975050505050505050565b600060c08201905081810360008301526120268189611ddd565b9050818103602083015261203a8188611ddd565b9050818103604083015261204e8187611ddd565b905061205d6060830186611f3c565b61206a6080830185611d61565b81810360a083015261207c8184611ddd565b9050979650505050505050565b600060e08201905081810360008301526120a3818a611ddd565b905081810360208301526120b78189611ddd565b90506120c66040830188611f3c565b81810360608301526120d88187611ddd565b90506120e76080830186611f3c565b81810360a08301526120f98185611ddd565b905061210860c0830184611d61565b98975050505050505050565b6000602082019050818103600083015261212d81611e16565b9050919050565b6000602082019050818103600083015261214d81611e56565b9050919050565b6000602082019050818103600083015261216d81611e96565b9050919050565b6000602082019050818103600083015261218d81611efc565b9050919050565b60006020820190506121a96000830184611f3c565b92915050565b600060e0820190506121c4600083018a611f3c565b81810360208301526121d68189611ddd565b905081810360408301526121ea8188611ddd565b90506121f96060830187611d61565b818103608083015261220b8186611ddd565b905061221a60a0830185611f3c565b61222760c0830184611dce565b98975050505050505050565b600061010082019050612249600083018b611f3c565b818103602083015261225b818a611ddd565b9050818103604083015261226f8189611ddd565b905061227e6060830188611d61565b61228b6080830187611f3c565b61229860a0830186611dce565b6122a560c0830185611f3c565b81810360e08301526122b78184611ddd565b90509998505050505050505050565b600060e0820190506122db600083018a611f3c565b81810360208301526122ed8189611ddd565b905081810360408301526123018188611ddd565b905081810360608301526123158187611ddd565b90506123246080830186611f3c565b61233160a0830185611d61565b81810360c08301526123438184611ddd565b905098975050505050505050565b6000604051905081810181811067ffffffffffffffff8211171561237857612377612577565b5b8060405250919050565b600067ffffffffffffffff82111561239d5761239c612577565b5b601f19601f8301169050602081019050919050565b6000819050602082019050919050565b600081519050919050565b600081519050919050565b6000602082019050919050565b600082825260208201905092915050565b600082825260208201905092915050565b60006124128261249b565b915061241d8361249b565b9250827fffffffffffffffffffffffffffffffffffffffffffffffffffffffffffffffff0382111561245257612451612519565b5b828201905092915050565b60006124688261247b565b9050919050565b60008115159050919050565b600073ffffffffffffffffffffffffffffffffffffffff82169050919050565b6000819050919050565b82818337600083830152505050565b60005b838110156124d25780820151818401526020810190506124b7565b838111156124e1576000848401525b50505050565b600060028204905060018216806124ff57607f821691505b6020821081141561251357612512612548565b5b50919050565b7f4e487b7100000000000000000000000000000000000000000000000000000000600052601160045260246000fd5b7f4e487b7100000000000000000000000000000000000000000000000000000000600052602260045260246000fd5b7f4e487b7100000000000000000000000000000000000000000000000000000000600052604160045260246000fd5b6000601f19601f8301169050919050565b6125c08161245d565b81146125cb57600080fd5b50565b6125d78161249b565b81146125e257600080fd5b5056fea264697066735822122076837349317ec404c32a669dabc97f2f1557bfd6d9f8c324016fe5ed86aa530764736f6c63430008000033",
  "linkReferences": {},
  "deployedLinkReferences": {}
}